:100000000C9462000C948A000C948A000C948A0070
:100010000C948A000C948A000C948A000C948A0038
:100020000C948A000C948A000C948A000C948A0028
:100030000C948A000C948A000C948A000C948A0018
:100040000C9419080C948A000C9489080C94630889
:100050000C948A000C948A000C948A000C948A00F8
:100060000C94BB080C948A000000000024002700B8
:100070002A0000000000250028002B0000000008D6
:10008000000201000003040700000000000000005F
:1000900000000000230026002900040404040404D6
:1000A0000404020202020202030303030303010227
:1000B00004081020408001020408102001020408F6
:1000C00010201F0A11241FBECFEFD8E0DEBFCDBF26
:1000D00011E0A0E0B1E0E8E7F4E202C005900D9283
:1000E000A03FB107D9F723E0A0EFB1E001C01D9216
:1000F000A43CB207E1F710E0C2E6D0E004C02197CB
:10010000FE010E943412C136D107C9F70E94870A46
:100110000C943A120C94000081E480937C0080914E
:100120007A00806480937A0080917A0086FDFCCF0B
:1001300080917800909179000895CF92DF92EF92AC
:10014000FF92CF93DF93B091AC03A0E08111AB2F6E
:100150008091AD0390E0880F991FAC0140575F4F2D
:10016000C090B203D090B303E090B403F090B50315
:1001700030E020E0FA01C591D491E881B90190E026
:1001800080E0EB23EA130AC02F5F3F4F6C157D051B
:100190008E059F0578F36FEF7FEFCB01DF91CF9155
:1001A000FF90EF90DF90CF90089590E0FC01E4582D
:1001B000FF4F2491FC01E255FF4F3491FC01E656BC
:1001C000FF4FE491EE23C9F0222339F0233001F1EF
:1001D000A8F4213019F1223029F1F0E0EE0FFF1FD1
:1001E000EE58FF4FA591B4918FB7F894EC9161113F
:1001F00026C030953E233C938FBF08952730A9F049
:100200002830C9F0243049F7809180008F7D03C0E9
:10021000809180008F7780938000DFCF84B58F77C7
:1002200084BDDBCF84B58F7DFBCF8091B0008F770D
:100230008093B000D2CF8091B0008F7DF9CF3E2B5C
:10024000DACFCF93DF9390E0FC01E255FF4F24918A
:1002500086569F4FFC0184918823C9F090E0880F57
:10026000991FFC01E859FF4FA591B491FC01EE588C
:10027000FF4FC591D49161110DC09FB7F8948C9137
:10028000209582238C938881282328839FBFDF9128
:10029000CF910895623051F49FB7F8943C91822F2A
:1002A000809583238C93E8812E2BEFCF8FB7F89422
:1002B000EC912E2B2C938FBFEACF3FB7F89480910F
:1002C000F8029091F902A091FA02B091FB0226B5D2
:1002D000A89B05C02F3F19F00196A11DB11D3FBF7E
:1002E000BA2FA92F982F8827BC01CD01620F711D4D
:1002F000811D911D42E0660F771F881F991F4A9547
:10030000D1F708958F929F92AF92BF92CF92DF92D2
:10031000EF92FF924B015C010E945D016B017C0139
:100320000E945D016C197D098E099F09683E73402A
:1003300081059105A8F321E0821A9108A108B1086E
:1003400088EEC80E83E0D81EE11CF11C81149104D4
:10035000A104B10429F7FF90EF90DF90CF90BF90F8
:10036000AF909F908F9008952FB7F8946091F4020A
:100370007091F5028091F6029091F7022FBF0895D7
:10038000CF92DF92EF92FF920F931F93CF93DF9361
:10039000CDB7DEB7C054D1400FB6F894DEBF0FBE64
:1003A000CDBF0E94B4010091AE031091AF03209124
:1003B000B0033091B1036B017C01C01AD10AE20A8B
:1003C000F30A97018601003D17402105310590F49D
:1003D0008091B603C05CDE4F0FB6F894DEBF0FBE4F
:1003E000CDBFDF91CF911F910F91FF90EF90DF90E4
:1003F000CF9008956093AE037093AF038093B003E2
:100400009093B1031092A9031092A8031092A7032E
:100410001092A6031092A50362E08091AA030E94A5
:10042000210161E070E080E090E00E94820161E0E3
:100430008091AA030E94210160E08091AA030E949A
:10044000D5008091AB038551823020F58BE291E19C
:100450000197F1F762E08091AA030E942101809147
:10046000B70390E08230910538F0880F991F880F0C
:10047000991F05970197F1F7F89480E00E949D007D
:100480006F3F7F4F8F4F9F4F61F41092B603789468
:1004900080E0A0CF64E170E080E090E00E94820103
:1004A000D9CF81E00E949D006F3F7F4F8F4F9F4FBC
:1004B00061F38E010F5F1F4F6E012FEBC21A2EEFFB
:1004C000D20A780180E00E949D00F7016083718369
:1004D0008283938381E00E949D00F701648375838A
:1004E00086839783F8E0EF0EF11CEC14FD0451F7BE
:1004F000789430E020E0F801C080D180E280F38081
:100500004481558166817781FFEFCF16DF06EF06C4
:10051000FF0631F04F3F8FEF58076807780719F44F
:100520001092B603B5CFF90183E0F595E7958A956A
:10053000E1F7EB55FC4F8081880FC416D506E6061F
:10054000F70610F180832F5F3F4F085F1F4F28325F
:10055000310589F64091A9032091A5038091A60356
:10056000280F3327331F8091A703280F311D809157
:10057000A803820F932F911D99274817190681F61A
:1005800081E08093B60326CF8160DCCF0895089583
:100590000895AF92BF92CF92DF92EF92FF920F93A6
:1005A0001F93CF93DF936C017B018B01040F151F09
:1005B000EB015E01AE18BF08C017D10759F0699171
:1005C000D601ED91FC910190F081E02DC6010995D5
:1005D000892B79F7C501DF91CF911F910F91FF9082
:1005E000EF90DF90CF90BF90AF900895FC01538DB6
:1005F000448D252F30E0842F90E0821B930B5417FD
:1006000010F0CF96089501970895FC01918D828D89
:10061000981761F0A28DAE0FBF2FB11D5D968C9122
:10062000928D9F5F9F73928F90E008958FEF9FEF61
:100630000895FC01918D828D981731F0828DE80F1D
:10064000F11D858D90E008958FEF9FEF0895FC01D7
:10065000918D228D892F90E0805C9F4F821B9109A4
:100660008F73992708958CEF92E00E94270321E071
:10067000892B09F420E0822F089580E090E0892BF7
:1006800029F00E94330381110C9400000895FC01AD
:10069000A48DA80FB92FB11DA35ABF4F2C91848DE3
:1006A00090E001968F739927848FA689B7892C9340
:1006B000A089B1898C91837080648C93938D848D93
:1006C000981306C00288F389E02D80818F7D808396
:1006D0000895EF92FF920F931F93CF93DF93EC0156
:1006E00081E0888F9B8D8C8D98131AC0E889F989D9
:1006F000808185FF15C09FB7F894EE89FF896083DC
:10070000E889F98980818370806480839FBF81E05C
:1007100090E0DF91CF911F910F91FF90EF9008959E
:10072000F62E0B8D10E00F5F1F4F0F731127E02E79
:100730008C8D8E110CC00FB607FCFACFE889F989B1
:10074000808185FFF5CFCE010E944703F1CFEB8D6D
:10075000EC0FFD2FF11DE35AFF4FF0829FB7F89485
:100760000B8FEA89FB8980818062CFCFCF93DF93A3
:10077000EC01888D8823B9F0AA89BB89E889F989B9
:100780008C9185FD03C0808186FD0DC00FB607FCEE
:10079000F7CF8C9185FFF2CF808185FFEDCFCE0121
:1007A0000E944703E9CFDF91CF91089508952091EA
:1007B0003302260F3327331F21323105ECF4209109
:1007C0007C02FC0190E080E0243069F082E0089532
:1007D000A09133022191AC014D5E5D4FA40FB52F66
:1007E000B11D2C930196861798F380913302680F00
:1007F0006093330280E0089581E0089510927C02B6
:1008000081E080937B021092560261E082E10E94B7
:10081000D50061E083E10E94D500E9EBF0E0808142
:100820008E7F808380818D7F808388E48093B80071
:1008300085E48093BC000895CF93DF9391E090937B
:1008400012028823B9F0C091B800D091BA0080910B
:10085000BC008A7B8093BC0060E082E10E94D500EE
:1008600060E083E10E94D5000E94FE03D093BA00AD
:10087000C093B800DF91CF910895E091AB028091D1
:10088000AA02E81730F4F0E0EE50FE4F808190E0CD
:1008900008958FEF9FEF08959091AB028091AA0287
:1008A0002FEF3FEF981748F4E92FF0E0EE50FE4F9E
:1008B000208130E09F5F9093AB02C9010895809141
:1008C000AA029091AB02891B990B0895CF92DF92F7
:1008D000EF92FF920F931F93CF93DF937C01CB0195
:1008E0008A0120918202222389F0EB016B01C40E60
:1008F000D51ECC15DD0569F06991D701ED91FC910C
:100900000190F081E02DC7010995F3CF642F0E947B
:10091000D703C801DF91CF911F910F91FF90EF9006
:10092000DF90CF900895CF93DF931F92CDB7DEB7BE
:100930006983209182022223F9F02091A8022032BB
:1009400058F021E030E0FC013383228390E080E026
:100950000F90DF91CF9108958091A902E82FF0E0E8
:10096000ED57FD4F998190838F5F8093A90280930B
:10097000A80281E090E0ECCF61E0CE0101960E94F8
:10098000D703F7CFCF92DF92EF92FF920F931F938F
:10099000CF93DF93D62F672FFC01C48181E0809332
:1009A0008202C093A3021092A9021092A80289E9C0
:1009B00093E00E9493046D2F89E993E00E949304D1
:1009C000D091A802D13208F092C00E945D016B0163
:1009D0007C0180917C02811165C082E080937C0261
:1009E00081E080937B028FEF80937A0210927902EC
:1009F000D0937802A3E8B2E0E8E5F2E080E0D81313
:100A000085C01092570280915702CC0FC82BC0931B
:100A1000570280915602813009F07CC01092560234
:100A20000E945D016B017C01809157028093BB00A5
:100A300080917E0290917F02A0918002B09181020C
:100A4000892B8A2B8B2B99F00E945D0100917E02ED
:100A500010917F0220918002309181026C197D09F2
:100A60008E099F090617170728073907E0F18091BB
:100A7000BC0083FDD9CF85EC8093BC000E945D0152
:100A80006B017C0180917C02823009F445C0809129
:100A90007A028F3F61F180917A02803241F1809138
:100AA0007A0225C080917E0290917F02A0918002FF
:100AB000B0918102892B8A2B8B2B09F48ACF0E945B
:100AC0005D0100917E0210917F02209180023091A1
:100AD00081026C197D098E099F09061717072807DF
:100AE000390708F076CF80917D020E941C04109295
:100AF000A9021092A80210928202DF91CF911F9159
:100B00000F91FF90EF90DF90CF9008959D9191937A
:100B10008F5F75CF85EEB0CF80917E0290917F027E
:100B2000A0918002B0918102892B8A2B8B2B09F432
:100B3000A9CF0E945D0100917E0210917F02209159
:100B40008002309181026C197D098E099F09061778
:100B500017072807390708F095CFC5CFCF93DF9344
:100B6000CDB7DEB728970FB6F894DEBF0FBECDBF66
:100B700098E0E0E0F1E0DE01119601900D929A9587
:100B8000E1F79091C003961710F46FEF690F70E0D2
:100B9000660F771F21E030E02C0F3D1F620F731F9F
:100BA000FB016081860F8068682F70E088EB93E01E
:100BB00028960FB6F894DEBF0FBECDBFDF91CF9160
:100BC0000C94C20461E070E088EB93E00E94C204E0
:100BD0008BE39FE10197F1F78091C103882321F016
:100BE00060E080E00C94AE05089570E070640E94AF
:100BF000C20481E090E0089590E080E00895FB0158
:100C000001900020E9F73197AF01461B570BDC013B
:100C1000ED91FC910280F381E02D09948F929F92D7
:100C2000AF92BF92EF92FF920F931F93CF93DF93F8
:100C3000CDB7DEB7A1970FB6F894DEBF0FBECDBF1C
:100C40007C01FA01CB0119A2223008F42AE08E01BE
:100C50000F5D1F4F822E912CB12CA12CBF01A5013D
:100C600094010E94FE11F901CA016A300CF5605D21
:100C7000D8016E938D01232B242B252B79F790E03F
:100C800080E0109721F0BD01C7010E94FF05A196E9
:100C90000FB6F894DEBF0FBECDBFDF91CF911F918D
:100CA0000F91FF90EF90BF90AF909F908F9008951D
:100CB000695CDECFCF93DF93BC018CEF92E00E94A2
:100CC000FF05EC0168E371E08CEF92E00E94FF0504
:100CD0008C0F9D1FDF91CF9108950C94FF052F92EB
:100CE0003F924F925F926F927F928F929F92AF92BC
:100CF000BF92CF92DF92EF92FF921F93CF93DF9339
:100D0000EC016A017B01722EAB019601CB01B601A9
:100D10000E94E5116BE371E0811126C04601570185
:100D2000E894B7F82FEF3FEF4FE75FE7C501B40155
:100D30000E94E51181110CC02FEF3FEF4FE75FE7F5
:100D4000C501B4010E9414106FE371E0181664F03D
:100D50002FEF3FEF4FE75FE4C701B6010E94731129
:100D60001816B4F463E471E0CE01DF91CF911F91C6
:100D7000FF90EF90DF90CF90BF90AF909F908F90BB
:100D80007F906F905F904F903F902F900C94FF0555
:100D90002FEF3FEF4FE75FECC701B6010E94141041
:100DA00087FDE0CF20E030E0A901C701B6010E9435
:100DB0001410312C212C87FF0DC0E881F98101909E
:100DC000F081E02D6DE2CE0109951C01F7FAF09457
:100DD000F7F8F09410E060E070E080E09FE37116B7
:100DE00041F020E030E040E251E40E9419101F5F22
:100DF000F6CFA70196010E94A80F2B013C010E948B
:100E000092104B015C012AE0BC01A401CE010E94BA
:100E10000E067C01E20CF31C1123E1F1C501B401C3
:100E20000E94C1109B01AC01C301B2010E94A70F37
:100E30004B015C01E881F9810190F081E02D6EE2C7
:100E4000CE010995E80EF91E115020F120E030E0A6
:100E500040E251E4C501B4010E9478112B013C012C
:100E60000E9492104B01B12CA12C2AE0B501A401E3
:100E7000CE010E940E06E80EF91EC501B4010E94C3
:100E8000C1109B01AC01C301B2010E94A70F4B012D
:100E90005C01DACFC701DF91CF911F91FF90EF90F6
:100EA000DF90CF90BF90AF909F908F907F906F908A
:100EB0005F904F903F902F90089585ED8093BC00F8
:100EC00080917E0290917F02A0918002B091810278
:100ED0000796A11DB11D23E0B695A7959795879517
:100EE0002A95D1F72091BC0024FD03C010927C020A
:100EF000089540917E0250917F026091800270912E
:100F00008102452B462B472B69F30097A105B105BC
:100F100041F02AE22A95F1F700C00197A109B10931
:100F2000E1CF80917D020C941C040F931F9360E02D
:100F300087E00E94D50083E090E00197F1F761E03F
:100F400087E00E94D50083E290E00197F1F760E02E
:100F500087E00E94D500E6EBF0E06491E2EAF0E081
:100F6000E491F0E0EE0FFF1FE057FF4F8591949161
:100F700009EE1BE520E030E0462F0E94DA096115FA
:100F8000710581059105D9F06F5F7F4F8F4F9F4F9E
:100F90009F70611571058105910589F00E94C3104C
:100FA00026E933E44BE05DE30E9478112AE939E950
:100FB00049E150E40E9419101F910F91089560E0DB
:100FC00070E088EC93E4F8CFCF93DF930E9495070D
:100FD0002091F0013091F101F901EE0FFF1FEE0FAA
:100FE000FF1FE455FD4F6083718382839383C901A2
:100FF00001966AE070E00E94EA119093F1018093FB
:10100000F001CCEAD2E060E070E0CB0129913991A7
:10101000499159910E94A80F22E0C43DD207B1F72F
:1010200020E030E040E251E40E941910DF91CF91BE
:1010300008951F920F920FB60F9211242F933F9392
:101040008F939F93AF93BF938091F4029091F50299
:10105000A091F602B091F7023091F30223E0230F42
:101060002D3758F50196A11DB11D2093F3028093F1
:10107000F4029093F502A093F602B093F7028091E8
:10108000F8029091F902A091FA02B091FB02019648
:10109000A11DB11D8093F8029093F902A093FA026A
:1010A000B093FB02BF91AF919F918F913F912F9190
:1010B0000F900FBE0F901F90189526E8230F0296F1
:1010C000A11DB11DD2CF1F920F920FB60F92112406
:1010D0002F933F934F935F936F937F938F939F9340
:1010E000AF93BF93EF93FF938CEF92E00E9447037F
:1010F000FF91EF91BF91AF919F918F917F916F91F0
:101100005F914F913F912F910F900FBE0F901F90C5
:1011100018951F920F920FB60F9211242F938F9351
:101120009F93EF93FF93E0910C03F0910D03808167
:10113000E0911203F091130382FD1BC09081809116
:1011400015038F5F8F7320911603821741F0E09192
:101150001503F0E0E450FD4F958F80931503FF9148
:10116000EF919F918F912F910F900FBE0F901F9035
:1011700018958081F4CF1F920F920FB60F92112411
:101180002F933F934F935F936F937F938F939F938F
:10119000AF93BF93EF93FF938091B900887F803620
:1011A00009F44AC0F0F5883209F4A7C018F5803177
:1011B00009F49BC0B8F4882309F4F9C0883009F415
:1011C00094C0FF91EF91BF91AF919F918F917F91CB
:1011D0006F915F914F913F912F910F900FBE0F90A4
:1011E0001F901895883109F488C0803251F7809398
:1011F0007A0214C0803409F49DC040F48033B9F3FE
:101200008833F9F680937A0285ECB0C0803509F412
:1012100085C0883509F496C0883499F60E945D0728
:10122000D0CF883909F48CC038F5883729F050F4CC
:10123000883611F0803729F683E080937C02109283
:10124000550257C0883809F47BC0803919F08038BE
:1012500009F0B7CF80915502803208F071C0E0915B
:10126000550281E08E0F809355028091BB00F0E023
:10127000EB5CFD4F80833DC0803B39F0E0F4803A69
:1012800009F479C0883A09F09CCF84E080937C020D
:101290001092340210923302E091A602F091A7025C
:1012A00009958091330281110FC081E08093330250
:1012B0001092130209C0803C09F4A6CF883C09F4BF
:1012C000A3CF883B09F07DCFE091340281E08E0FFF
:1012D00080933402F0E0ED5EFD4F80818093BB008F
:1012E000909134028091330229C0809157028093FB
:1012F000BB0085EC8093BC0064CF90917902809113
:101300007802981758F5E091790281E08E0F80936A
:101310007902F0E0E85AFD4F8081E9CFE09179024F
:1013200081E08E0F809379028091BB00F0E0E85A53
:10133000FD4F808390917902809178029817C8F2CE
:1013400085E8D8CFE091790281E08E0F8093790211
:101350008091BB00F0E0E85AFD4F808380917B02D2
:1013600081115CCF81E08093560284EA8093BC00B7
:1013700010927C0226CF85EC8093BC0010927C02F8
:1013800080915502803230F4E0915502F0E0EB5C40
:10139000FD4F10826091550270E0E091A402F0913F
:1013A000A50285E392E00995109255020ACF1092AA
:1013B0007A0234CFCF92DF92EF92FF920F931F9376
:1013C000E82FF92F05C0015011092109310961F1F8
:1013D000908196239417B9F305C001501109210992
:1013E000310911F1908196239413F7CFC12CD12CA0
:1013F000E12CF12C0AC08FEFC81AD80AE80AF80AC3
:101400000C151D052E053F0579F080818623841774
:1014100091F36C2D7D2D8E2D9F2D1F910F91FF909F
:10142000EF90DF90CF90089560E070E080E090E072
:101430001F910F91FF90EF90DF90CF900895ECEF08
:10144000F2E01382128288EE93E0A0E0B0E08483A1
:101450009583A683B7832CE031E03183208325EC8C
:1014600030E03587248724EC30E03787268720EC6E
:1014700030E0318B208B21EC30E0338B228B22EC5F
:1014800030E0358B248B26EC30E0378B268B118EA9
:10149000128E138E148EE9E9F3E013821282848394
:1014A0009583A683B7838EE191E091838083E8EBF7
:1014B000F3E01382128280E391E0918380831186AE
:1014C0008EE3848380E1828783E08387A5EAB3E0AB
:1014D00085E015968C93159786E116968C93169752
:1014E000E3EBF0E0E4911796EC931797EFE9F0E067
:1014F000E4911896EC93189740E85EE360E070E0A2
:101500001D964D935D936D937C9350970895CF9363
:10151000DF93CDB7DEB760970FB6F894DEBF0FBE8E
:10152000CDBF789484B5826084BD84B5816084BD6C
:1015300085B5826085BD85B5816085BD80916E0071
:10154000816080936E0010928100809181008260A2
:1015500080938100809181008160809381008091DF
:1015600080008160809380008091B10084608093CE
:10157000B1008091B00081608093B00080917A00CA
:10158000846080937A0080917A00826080937A00F0
:1015900080917A00816080937A0080917A008068DF
:1015A00080937A001092C100E0910C03F0910D033A
:1015B00082E08083E0910803F09109031082E091BA
:1015C0000A03F0910B038FEC808310921403E091D7
:1015D0001003F091110386E08083E0910E03F091F7
:1015E0000F03808180618083E0910E03F0910F03EF
:1015F000808188608083E0910E03F0910F038081E9
:1016000080688083E0910E03F0910F0380818F7DCD
:10161000808361E087E00E94210160E088E00E9411
:10162000210161E08CE00E94210161E084E00E94E0
:10163000210161E08AE00E94210161E08BE00E94CB
:1016400021011092AB021092AA021092A9021092EC
:10165000A8020E94FE0387EC92E09093A702809379
:10166000A60288EC92E09093A5028093A4020E94C7
:10167000FE0380E18093BD038091C303823018F0A4
:1016800098E19093BD038093C0038BE39DE00197A5
:10169000F1F76091BD03606270E088EB93E00E9417
:1016A000C2048BE496E40197F1F76091BD03606298
:1016B00070E088EB93E00E94C20483E592E001971A
:1016C000F1F76091BD03606270E088EB93E00E94E7
:1016D000C2046091BD03606270E088EB93E00E94F9
:1016E000C20484E08093BE036CE070E088EB93E07A
:1016F0000E94C2040E94E20582E08093BF0366E07C
:1017000070E088EB93E00E94C20462E070E088EB36
:1017100093E00E94C2048BE39FE10197F1F70E94DE
:10172000E20562E08091AA030E9421010E94B401B7
:10173000605D7740810991096093AE037093AF03B8
:101740008093B0039093B10387E38093B7030E9423
:101750009507ECEAF2E0619371938193919322E013
:10176000E43DF207C1F78EE491E00E945A0645E895
:10177000242E40E0342E0E94B4012B013C018091C4
:10178000EF029091F002A091F102B091F202A30158
:101790009201281B390B4A0B5B0BDA01C9010A972E
:1017A000A105B10508F4DAC04092EF025092F002B0
:1017B0006092F1027092F2020E94C001882341F00F
:1017C0008091AB038C3009F46AC048F48B3001F18E
:1017D000C12CD12C20ECE22E2FE7F22E43C08551F4
:1017E0008230B0F71091A703612F70E0762F662743
:1017F00066277F778091A803682B90E080E00E94A5
:10180000C1102DEC3CEC4CEC5DE30E94781163C000
:101810006091A70370E090E080E00E94C1106B012E
:101820007C011091A80317FF0AC0AC019B0160E086
:1018300070E080E89FEB0E94A70F6B017C011F7096
:10184000612F70E090E080E00E94C3102DEC3CEC32
:101850004CEC5DE30E947811A70196010E94A80F4D
:101860006B017C01C092EB02D092EC02E092ED029F
:10187000F092EE020E94C001882351F08091AB03E8
:101880008B3030F08D3080F18551823008F473C098
:10189000812C912C90ECA92E9FE7B92E43C010917A
:1018A000A703612F70E090E080E00E94C1106B01FF
:1018B0007C016091A8036F7070E090E080E00E946E
:1018C000C3102DEC3CEC4CEC5DE30E947811A701B9
:1018D00096010E94A80F6B017C0117FFC3CFF7FA96
:1018E000F094F7F8F094BECF6091A60370E090E01A
:1018F00080E00E94C3102DEC3CEC4CEC5DE30E94B8
:1019000078114B015C016091A50370E090E080E0EC
:101910000E94C3109B01AC01C501B4010E94A80F35
:101920004B015C018092E7029092E802A092E902EA
:10193000B092EA02A7019601C701B6010E94E51123
:10194000811108C0A5019401C501B4010E94E511EF
:10195000882319F18BE591E00E945A0640E050E09F
:10196000452B09F408CF0E943303882309F403CFE1
:101970000E94000000CF6091A5037091A603762716
:101980006727762790E080E00E94C1102DEC3CECA8
:101990004CEC5DE30E947811C3CF0E948C008C0157
:1019A0000E94E4076B017C01B801110F880B990BB1
:1019B0000E94C3102DE032E348EC5EE30E947811F0
:1019C000A70196010E94A70F4B015C0127E13FE2AE
:1019D0004BED5BE30E9478112091D4023091D50247
:1019E0004091D6025091D7020E94A80F6B017C0152
:1019F000C092D402D092D502E092D602F092D702E1
:101A000029E23CE54FE05EE3C501B4010E94781194
:101A10004B015C0120E030E040EA50E4C701B60130
:101A20000E9478119B01AC01C501B4010E94A80F6E
:101A30006B017C0120E030E0A9010E94141087FDB9
:101A400012C220E030E04FE753E4C701B6010E9424
:101A50007311181634F4C12CD12C8FE7E82E83E4CF
:101A6000F82EC701B6010E948B106B018B0161E05B
:101A700089E00E942101C114D10409F0F8C160E09D
:101A800089E00E94D500C090EB02D090EC02E0907B
:101A9000ED02F090EE0220E030E048E452E4C701AD
:101AA000B6010E94731118160CF027C28091E20251
:101AB000811142C281E08093E20261E08CE00E94E9
:101AC000D5000E948C00BC01990F880B990B0E94D5
:101AD000C3102DE032E348EC5EE30E9478116B0105
:101AE0007C010E94E40769837A838B839C83A7012E
:101AF00096010E94A70F4B015C0120E030E0A90194
:101B00000E947311181624F0B7FAB094B7F8B09485
:101B10002DEC3CEC4CE45DE3C701B6010E9478116A
:101B20006D837E838F8398879B01AC01C701B601CB
:101B30000E94A80F9B01AC0169817A818B819C81F5
:101B40000E94731118160CF0EBC18091E102811113
:101B500013C011E01093E1020E94B4016093DD0212
:101B60007093DE028093DF029093E00261E08AE0EE
:101B70000E94D5001093DC020E94B4016D877E871D
:101B80008F87988B2091D8023091D9024091DA0248
:101B90005091DB02DC01CB01821B930BA40BB50B34
:101BA0000397A105B105A8F02D853E854F8558897D
:101BB0002093D8023093D9024093DA025093DB028B
:101BC0006091DC0281E068276093DC028AE00E9479
:101BD000D50011E0A50194016D817E818F819885EA
:101BE0000E94731187FD10E0612F84E00E94D500F0
:101BF0002D813E814F815885C701B6010E94A70FF4
:101C00009B01AC0169817A818B819C810E941410B7
:101C1000682F661F6627661F8BE00E94D5008091A3
:101C2000E3029091E402A091E502B091E602A301E3
:101C30009201281B390B4A0B5B0BDA01C901803971
:101C40009140A105B10508F489CE0E94E4072DEA70
:101C50003AEF4CE45FE30E9419106B017C0160E0F5
:101C600080E00E94AE056BE771E088EB93E00E9494
:101C70006D0622E0B701A60188EB93E00E946F0693
:101C800060E08FE00E94AE0565E871E088EB93E0CC
:101C90000E946D0668E871E08CEF92E00E946D068C
:101CA00022E0B701A6018CEF92E00E946F0663E983
:101CB00071E08CEF92E00E946D060E948C00BC01E6
:101CC000990F880B990B0E94C3102DE032E348EC6A
:101CD0005EE30E9478112AE037ED43E25CE30E9464
:101CE00078112DEA3AEF4CE45FE30E9419106B0182
:101CF0007C0161E080E00E94AE0569E971E088EB5B
:101D000093E00E946D0622E0B701A60188EB93E004
:101D10000E946F0661E08EE00E94AE0563EA71E00A
:101D200088EB93E00E946D0665EA71E08CEF92E02B
:101D30000E946D0622E0B701A6018CEF92E00E949E
:101D40006F0660EB71E08CEF92E00E946D0662E03E
:101D500080E00E94AE0565EB71E088EB93E00E94A5
:101D60006D064091EB025091EC026091ED02709192
:101D7000EE0222E088EB93E00E946F0662E08BE0C7
:101D80000E94AE056BEB71E088EB93E00E946D065C
:101D90006DEB71E08CEF92E00E946D064091EB02DA
:101DA0005091EC026091ED027091EE0222E08CEF16
:101DB00092E00E946F0664EC71E08CEF92E00E946A
:101DC0006D0663E080E00E94AE0569EC71E088EB8F
:101DD00093E00E946D064091E7025091E802609105
:101DE000E9027091EA0222E088EB93E00E946F061C
:101DF00063E08AE00E94AE056EEC71E088EB93E050
:101E00000E946D0660ED71E08CEF92E00E946D061D
:101E10004091E7025091E8026091E9027091EA0274
:101E200022E08CEF92E00E946F066BED71E08CEF88
:101E300092E00E946D0660EE71E08CEF92E00E94ED
:101E40006D068091E202882309F473C087E491E073
:101E50000E945A064092E3025092E4026092E50228
:101E60007092E6027BCDC12CD12C7601FACD0F3FCA
:101E7000110511F461E004CEF1018491833019F170
:101E800040F48130B1F08230C9F00038110594F788
:101E9000F6CD873011F1883041F18430B1F780916F
:101EA0008000806280938000D0928B00C0928A0074
:101EB000EACD84B5806884BDC7BCE5CD84B58062B9
:101EC00084BDC8BCE0CD8091800080688093800094
:101ED000D0928900C0928800D6CD8091B0008068F1
:101EE0008093B000C092B300CECD8091B0008062EC
:101EF0008093B000C092B400C6CD20E030E040EF47
:101F000051E4C701B6010E94141087FFDACD809119
:101F1000E202882309F4D5CD1092E20260E0CECD32
:101F200060E08AE00E94D5001092DC021092E1028B
:101F300050CE8AE491E08CCF20E030E040EF51E4D5
:101F4000C701B6010E94141087FFBBCDE5CF5058E2
:101F5000BB27AA270E94BF0F0C9439110E942B1196
:101F600038F00E94321120F039F49F3F19F426F422
:101F70000C9428110EF4E095E7FB0C942211E92F44
:101F80000E944A1158F3BA1762077307840795072E
:101F900020F079F4A6F50C946C110EF4E0950B2E5C
:101FA000BA2FA02D0B01B90190010C01CA01A001AB
:101FB0001124FF27591B99F0593F50F4503E68F106
:101FC0001A16F040A22F232F342F4427585FF3CF47
:101FD000469537952795A795F0405395C9F77EF418
:101FE0001F16BA0B620B730B840BBAF09150A1F061
:101FF000FF0FBB1F661F771F881FC2F70EC0BA0FE7
:10200000621F731F841F48F4879577956795B7956E
:10201000F7959E3F08F0B0CF9395880F08F0992769
:10202000EE0F9795879508950E94FE1008F481E0C1
:1020300008950E942D100C9439110E94321158F00D
:102040000E942B1140F029F45F3F29F00C942211DB
:1020500051110C946D110C9428110E944A1168F3CF
:102060009923B1F3552391F3951B550BBB27AA2751
:1020700062177307840738F09F5F5F4F220F331F8B
:10208000441FAA1FA9F335D00E2E3AF0E0E832D053
:1020900091505040E695001CCAF72BD0FE2F29D056
:1020A000660F771F881FBB1F261737074807AB0728
:1020B000B0E809F0BB0B802DBF01FF2793585F4F9D
:1020C0003AF09E3F510578F00C9422110C946D115A
:1020D0005F3FE4F3983ED4F3869577956795B7957F
:1020E000F7959F5FC9F7880F911D9695879597F98A
:1020F0000895E1E0660F771F881FBB1F6217730703
:102100008407BA0720F0621B730B840BBA0BEE1F17
:1021100088F7E09508950E9492106894B1110C948C
:102120006D1108950E94521188F09F5798F0B92FB1
:102130009927B751B0F0E1F0660F771F881F991FFC
:102140001AF0BA95C9F714C0B13091F00E946C1121
:10215000B1E008950C946C11672F782F8827B85F31
:1021600039F0B93FCCF3869577956795B395D9F754
:102170003EF490958095709561957F4F8F4F9F4F5E
:102180000895E89409C097FB3EF49095809570956A
:1021900061957F4F8F4F9F4F9923A9F0F92F96E9B3
:1021A000BB279395F695879577956795B795F11128
:1021B000F8CFFAF4BB0F11F460FF1BC06F5F7F4FC5
:1021C0008F4F9F4F16C0882311F096E911C07723D7
:1021D00021F09EE8872F762F05C0662371F096E8E0
:1021E000862F70E060E02AF09A95660F771F881FAF
:1021F000DAF7880F9695879597F90895990F000853
:10220000550FAA0BE0E8FEEF16161706E807F907C8
:10221000C0F012161306E407F50798F0621B730B63
:10222000840B950B39F40A2661F0232B242B252BE4
:1022300021F408950A2609F4A140A6958FEF811D87
:10224000811D089597F99F6780E870E060E0089528
:102250009FEF80EC089500240A94161617061806BE
:102260000906089500240A9412161306140605069A
:102270000895092E0394000C11F4882352F0BB0F2B
:1022800040F4BF2B11F460FF04C06F5F7F4F8F4F8E
:102290009F4F089557FD9058440F551F59F05F3FC9
:1022A00071F04795880F97FB991F61F09F3F79F078
:1022B00087950895121613061406551FF2CF4695FA
:1022C000F1DF08C0161617061806991FF1CF86957C
:1022D0007105610508940895E894BB276627772760
:1022E000CB0197F908950E94FE1008F48FEF08952E
:1022F0000E948B110C9439110E942B1138F00E940E
:10230000321120F0952311F00C9422110C94281115
:1023100011240C946D110E944A1170F3959FC1F322
:10232000950F50E0551F629FF001729FBB27F00D83
:10233000B11D639FAA27F00DB11DAA1F649F6627D8
:10234000B00DA11D661F829F2227B00DA11D621F27
:10235000739FB00DA11D621F839FA00D611D221FE1
:10236000749F3327A00D611D231F849F600D211DC5
:10237000822F762F6A2F11249F5750409AF0F1F048
:1023800088234AF0EE0FFF1FBB1F661F771F881FB1
:1023900091505040A9F79E3F510580F00C942211B6
:1023A0000C946D115F3FE4F3983ED4F386957795D6
:1023B0006795B795F795E7959F5FC1F7FE2B880F57
:1023C000911D9695879597F908950E94FE10880BA8
:1023D000990B089597FB072E16F4009407D077FD0C
:1023E00009D00E94201207FC05D03EF490958195FB
:1023F0009F4F0895709561957F4F0895A1E21A2E21
:10240000AA1BBB1BFD010DC0AA1FBB1FEE1FFF1F98
:10241000A217B307E407F50720F0A21BB30BE40BE8
:10242000F50B661F771F881F991F1A9469F760952F
:102430007095809590959B01AC01BD01CF010895E9
:10244000AA1BBB1B51E107C0AA1FBB1FA617B707DA
:1024500010F0A61BB70B881F991F5A95A9F78095F6
:102460009095BC01CD010895EE0FFF1F0590F491EA
:08247000E02D0994F894FFCF60
:102478000000400014005400000000006903C90275
:10248800F602B603270305031903000000009304AE
:102498006604FC05C6025F044C043D04000000000D
:1024A800F505C902FC05D6030D0A006E616E0069C8
:1024B8006E66006F7666004F4E004F4646005265C6
:1024C8006164696E672044617461004661696C6586
:1024D8006420746F20726561642066726F6D204499
:1024E80048542073656E736F722100446973746178
:1024F8006E63653A00636D0044697374616E636569
:102508003A200020636D207C00536574706F696EFB
:10251800743A005600536574706F696E743A2000FF
:102528002056207C0054656D703A00430054656D58
:10253800703A20002043207C0048756D3A00250041
:1025480048756D69646974793A20002025207C00FB
:102558004D6F746F72205374617475733A20000064
:00000001FF
